{
  "transactions": [
    {
      "hash": "0xbb15c14c231d571eff4eb4bfc0f3663faf6951ff34f36e0352389a22509ae460",
      "transactionType": "CALL",
      "contractName": null,
      "contractAddress": "0x8845a9e68a7cac280a70aee76d3b963fff803aa9",
      "function": "mint(uint256)",
      "arguments": [
        "1000000000000000000000"
      ],
      "transaction": {
        "from": "0x8346288c03ab0f8de9916fb7a778d757dfb7832e",
        "to": "0x8845a9e68a7cac280a70aee76d3b963fff803aa9",
        "gas": "0x17d17",
        "value": "0x0",
        "input": "0xa0712d6800000000000000000000000000000000000000000000003635c9adc5dea00000",
        "nonce": "0x5",
        "chainId": "0x14a34"
      },
      "additionalContracts": [],
      "isFixedGasLimit": false
    },
    {
      "hash": "0xa94fecfcc01345fb96e765e1717bb4cbb0c19fb9f2a54c01d861e8b54de3ade3",
      "transactionType": "CALL",
      "contractName": null,
      "contractAddress": "0x8845a9e68a7cac280a70aee76d3b963fff803aa9",
      "function": "transfer(address,uint256)",
      "arguments": [
        "0x51908F598A5e0d8F1A3bAbFa6DF76F9704daD072",
        "1000000000000000000000"
      ],
      "transaction": {
        "from": "0x8346288c03ab0f8de9916fb7a778d757dfb7832e",
        "to": "0x8845a9e68a7cac280a70aee76d3b963fff803aa9",
        "gas": "0xff97",
        "value": "0x0",
        "input": "0xa9059cbb00000000000000000000000051908f598a5e0d8f1a3babfa6df76f9704dad07200000000000000000000000000000000000000000000003635c9adc5dea00000",
        "nonce": "0x6",
        "chainId": "0x14a34"
      },
      "additionalContracts": [],
      "isFixedGasLimit": false
    }
  ],
  "receipts": [
    {
      "status": "0x1",
      "cumulativeGasUsed": "0x2d4cd",
      "logs": [
        {
          "address": "0x8845a9e68a7cac280a70aee76d3b963fff803aa9",
          "topics": [
            "0xddf252ad1be2c89b69c2b068fc378daa952ba7f163c4a11628f55a4df523b3ef",
            "0x0000000000000000000000000000000000000000000000000000000000000000",
            "0x0000000000000000000000008346288c03ab0f8de9916fb7a778d757dfb7832e"
          ],
          "data": "0x00000000000000000000000000000000000000000000003635c9adc5dea00000",
          "blockHash": "0x0000000000000000000000000000000000000000000000000000000000000000",
          "blockNumber": "0x23a5d8e",
          "blockTimestamp": "0x698819fc",
          "transactionHash": "0xa94fecfcc01345fb96e765e1717bb4cbb0c19fb9f2a54c01d861e8b54de3ade3",
          "transactionIndex": "0x2",
          "logIndex": "0x1",
          "removed": false
        }
      ],
      "logsBloom": "0x00800008000000000000000000000000000000000000000000000000000000000000000000000000000000000000008000000000000000000000000000000000000000000000000000000008000000000000000000000000000000000000000000000000020000000000000000000900000000040000000000000010000000000000000000000000000000000000000000000000000000000000000000000000000000000000000000000000000004000000000000000000000000000000000000000002000000000000000000000000000000000000000000000000000020000000000000000000000000000000000000000000000000000000000000000000",
      "type": "0x2",
      "transactionHash": "0xa94fecfcc01345fb96e765e1717bb4cbb0c19fb9f2a54c01d861e8b54de3ade3",
      "transactionIndex": "0x2",
      "blockHash": "0x0000000000000000000000000000000000000000000000000000000000000000",
      "blockNumber": "0x23a5d8e",
      "gasUsed": "0x113e8",
      "effectiveGasPrice": "0x124f80",
      "blobGasUsed": "0x79e0",
      "from": "0x8346288c03ab0f8de9916fb7a778d757dfb7832e",
      "to": "0x8845a9e68a7cac280a70aee76d3b963fff803aa9",
      "contractAddress": null,
      "daFootprintGasScalar": "0x138",
      "l1BaseFeeScalar": "0x44d",
      "l1BlobBaseFee": "0x36f8d95",
      "l1BlobBaseFeeScalar": "0xa118b",
      "l1Fee": "0x14b73752a",
      "l1GasPrice": "0x3b756cac",
      "l1GasUsed": "0x640"
    },
    {
      "status": "0x1",
      "cumulativeGasUsed": "0x38dd9",
      "logs": [
        {
          "address": "0x8845a9e68a7cac280a70aee76d3b963fff803aa9",
          "topics": [
            "0xddf252ad1be2c89b69c2b068fc378daa952ba7f163c4a11628f55a4df523b3ef",
            "0x0000000000000000000000008346288c03ab0f8de9916fb7a778d757dfb7832e",
            "0x00000000000000000000000051908f598a5e0d8f1a3babfa6df76f9704dad072"
          ],
          "data": "0x00000000000000000000000000000000000000000000003635c9adc5dea00000",
          "blockHash": "0x0000000000000000000000000000000000000000000000000000000000000000",
          "blockNumber": "0x23a5d8e",
          "blockTimestamp": "0x698819fc",
          "transactionHash": "0xbb15c14c231d571eff4eb4bfc0f3663faf6951ff34f36e0352389a22509ae460",
          "transactionIndex": "0x3",
          "logIndex": "0x2",
          "removed": false
        }
      ],
      "logsBloom": "0x00800008000000000000000000000000000000000000000000000000100000000000000000000200000000000000008000000000000000000000000000000000000000000000000040000008000000000000000000000000000000000000000000000000000000000000000000000100000000040000000000000010000000000000000000000000000000000000000000000000000000000000000000000000000000000000000000000000000004000000000000000000000000000000000000000002000000000000000000000000000000000000000000000000000000000000000000000000000000000000000000000000000000000000000000000000",
      "type": "0x2",
      "transactionHash": "0xbb15c14c231d571eff4eb4bfc0f3663faf6951ff34f36e0352389a22509ae460",
      "transactionIndex": "0x3",
      "blockHash": "0x0000000000000000000000000000000000000000000000000000000000000000",
      "blockNumber": "0x23a5d8e",
      "gasUsed": "0xb90c",
      "effectiveGasPrice": "0x124f80",
      "blobGasUsed": "0x79e0",
      "from": "0x8346288c03ab0f8de9916fb7a778d757dfb7832e",
      "to": "0x8845a9e68a7cac280a70aee76d3b963fff803aa9",
      "contractAddress": null,
      "daFootprintGasScalar": "0x138",
      "l1BaseFeeScalar": "0x44d",
      "l1BlobBaseFee": "0x36f8d95",
      "l1BlobBaseFeeScalar": "0xa118b",
      "l1Fee": "0x14b73752a",
      "l1GasPrice": "0x3b756cac",
      "l1GasUsed": "0x640"
    }
  ],
  "libraries": [],
  "pending": [],
  "returns": {},
  "timestamp": 1770527226304,
  "chain": 84532,
  "commit": "2e6b427"
}