{
  "transactions": [
    {
      "hash": "0xa492e8e5f3c6a951d9c9b5fecdc295853ba4aea530af891edcd309866ca20575",
      "transactionType": "CALL",
      "contractName": null,
      "contractAddress": "0x8845a9e68a7cac280a70aee76d3b963fff803aa9",
      "function": "mint(uint256)",
      "arguments": [
        "1000000000000000000000"
      ],
      "transaction": {
        "from": "0x8346288c03ab0f8de9916fb7a778d757dfb7832e",
        "to": "0x8845a9e68a7cac280a70aee76d3b963fff803aa9",
        "gas": "0x120d4",
        "value": "0x0",
        "input": "0xa0712d6800000000000000000000000000000000000000000000003635c9adc5dea00000",
        "nonce": "0x8",
        "chainId": "0x14a34"
      },
      "additionalContracts": [],
      "isFixedGasLimit": false
    }
  ],
  "receipts": [
    {
      "status": "0x1",
      "cumulativeGasUsed": "0x2d67dd",
      "logs": [
        {
          "address": "0x8845a9e68a7cac280a70aee76d3b963fff803aa9",
          "topics": [
            "0xddf252ad1be2c89b69c2b068fc378daa952ba7f163c4a11628f55a4df523b3ef",
            "0x0000000000000000000000000000000000000000000000000000000000000000",
            "0x0000000000000000000000008346288c03ab0f8de9916fb7a778d757dfb7832e"
          ],
          "data": "0x00000000000000000000000000000000000000000000003635c9adc5dea00000",
          "blockHash": "0x0000000000000000000000000000000000000000000000000000000000000000",
          "blockNumber": "0x23a5e1a",
          "blockTimestamp": "0x69881b14",
          "transactionHash": "0xa492e8e5f3c6a951d9c9b5fecdc295853ba4aea530af891edcd309866ca20575",
          "transactionIndex": "0xe",
          "logIndex": "0x4c",
          "removed": false
        }
      ],
      "logsBloom": "0x00800008000000000000000000000000000000000000000000000000000000000000000000000000000000000000008000000000000000000000000000000000000000000000000000000008000000000000000000000000000000000000000000000000020000000000000000000900000000040000000000000010000000000000000000000000000000000000000000000000000000000000000000000000000000000000000000000000000004000000000000000000000000000000000000000002000000000000000000000000000000000000000000000000000020000000000000000000000000000000000000000000000000000000000000000000",
      "type": "0x2",
      "transactionHash": "0xa492e8e5f3c6a951d9c9b5fecdc295853ba4aea530af891edcd309866ca20575",
      "transactionIndex": "0xe",
      "blockHash": "0x0000000000000000000000000000000000000000000000000000000000000000",
      "blockNumber": "0x23a5e1a",
      "gasUsed": "0xd11c",
      "effectiveGasPrice": "0x124f80",
      "blobGasUsed": "0x79e0",
      "from": "0x8346288c03ab0f8de9916fb7a778d757dfb7832e",
      "to": "0x8845a9e68a7cac280a70aee76d3b963fff803aa9",
      "contractAddress": null,
      "daFootprintGasScalar": "0x138",
      "l1BaseFeeScalar": "0x44d",
      "l1BlobBaseFee": "0x3b04ff9",
      "l1BlobBaseFeeScalar": "0xa118b",
      "l1Fee": "0x15f411f50",
      "l1GasPrice": "0x3d3993ea",
      "l1GasUsed": "0x640"
    }
  ],
  "libraries": [],
  "pending": [],
  "returns": {},
  "timestamp": 1770527507463,
  "chain": 84532,
  "commit": "2e6b427"
}