{
  "transactions": [
    {
      "hash": "0x3a5c507359a2cb29b728521f47baca3a980cbdc1cfa589aea19dded74c35c3cd",
      "transactionType": "CALL",
      "contractName": null,
      "contractAddress": "0x05e73354cfdd6745c338b50bcfdfa3aa6fa03408",
      "function": "initialize((address,address,uint24,int24,address),uint160)",
      "arguments": [
        "(0x036CbD53842c5426634e7929541eC2318f3dCF7e, 0x8845A9E68A7cac280a70aeE76d3b963FfF803aA9, 8388608, 60, 0x67AB6743B441aBDB346C9cb9C97949405c858080)",
        "79228162514264337593543950336000000"
      ],
      "transaction": {
        "from": "0x8346288c03ab0f8de9916fb7a778d757dfb7832e",
        "to": "0x05e73354cfdd6745c338b50bcfdfa3aa6fa03408",
        "gas": "0x12943",
        "value": "0x0",
        "input": "0x6276cbbe000000000000000000000000036cbd53842c5426634e7929541ec2318f3dcf7e0000000000000000000000008845a9e68a7cac280a70aee76d3b963fff803aa90000000000000000000000000000000000000000000000000000000000800000000000000000000000000000000000000000000000000000000000000000003c00000000000000000000000067ab6743b441abdb346c9cb9c97949405c85808000000000000000000000000000000000000f4240000000000000000000000000",
        "nonce": "0x7",
        "chainId": "0x14a34"
      },
      "additionalContracts": [],
      "isFixedGasLimit": false
    }
  ],
  "receipts": [
    {
      "status": "0x1",
      "cumulativeGasUsed": "0x17fa9b",
      "logs": [
        {
          "address": "0x05e73354cfdd6745c338b50bcfdfa3aa6fa03408",
          "topics": [
            "0xdd466e674ea557f56295e2d0218a125ea4b4f0f6f3307b95f85e6110838d6438",
            "0x11db39746a398dc60abd801cc5806cc528b3ae20ae74b6069abb648aefd53189",
            "0x000000000000000000000000036cbd53842c5426634e7929541ec2318f3dcf7e",
            "0x0000000000000000000000008845a9e68a7cac280a70aee76d3b963fff803aa9"
          ],
          "data": "0x0000000000000000000000000000000000000000000000000000000000800000000000000000000000000000000000000000000000000000000000000000003c00000000000000000000000067ab6743b441abdb346c9cb9c97949405c85808000000000000000000000000000000000000f42400000000000000000000000000000000000000000000000000000000000000000000000000000000000043764",
          "blockHash": "0x0000000000000000000000000000000000000000000000000000000000000000",
          "blockNumber": "0x23a5da4",
          "blockTimestamp": "0x69881a28",
          "transactionHash": "0x3a5c507359a2cb29b728521f47baca3a980cbdc1cfa589aea19dded74c35c3cd",
          "transactionIndex": "0x9",
          "logIndex": "0x25",
          "removed": false
        }
      ],
      "logsBloom": "0x00000000000000000000000000000000000000000000000000000000000000020000000100000000000000000000000000000000000000000000000000000000000000000000800000000000000000000000000000000000000000000000000000000000000000000000000000000000000000000000000000000000000000000000000044000008000000000000000000000001000000000000000000200000000000010000000000000000000000000000000000000000100000000000000000000000001000000000000000000000000000000000000000000000001000000000000000000400000000000040000000001000000000000000000000000000",
      "type": "0x2",
      "transactionHash": "0x3a5c507359a2cb29b728521f47baca3a980cbdc1cfa589aea19dded74c35c3cd",
      "transactionIndex": "0x9",
      "blockHash": "0x0000000000000000000000000000000000000000000000000000000000000000",
      "blockNumber": "0x23a5da4",
      "gasUsed": "0xcb42",
      "effectiveGasPrice": "0x124f80",
      "blobGasUsed": "0xaaa0",
      "from": "0x8346288c03ab0f8de9916fb7a778d757dfb7832e",
      "to": "0x05e73354cfdd6745c338b50bcfdfa3aa6fa03408",
      "contractAddress": null,
      "daFootprintGasScalar": "0x138",
      "l1BaseFeeScalar": "0x44d",
      "l1BlobBaseFee": "0x3b05014",
      "l1BlobBaseFeeScalar": "0xa118b",
      "l1Fee": "0x4ef207c88",
      "l1GasPrice": "0x3ff3d0a0",
      "l1GasUsed": "0x8c9"
    }
  ],
  "libraries": [],
  "pending": [],
  "returns": {},
  "timestamp": 1770527270929,
  "chain": 84532,
  "commit": "2e6b427"
}