{
  "transactions": [
    {
      "hash": "0xc454cc0605faf0177679c8fbd7ab452c9e8a56bc35a992ca770a789ad3261ef5",
      "transactionType": "CALL",
      "contractName": null,
      "contractAddress": "0x05e73354cfdd6745c338b50bcfdfa3aa6fa03408",
      "function": "initialize((address,address,uint24,int24,address),uint160)",
      "arguments": [
        "(0x036CbD53842c5426634e7929541eC2318f3dCF7e, 0x68eBAd847A016bB830B3607e0eEeA516A09EA5e6, 8388608, 60, 0x038f554A1b854F68b3BB46125ea1947ffbf94080)",
        "79228162514264337593543950336000000"
      ],
      "transaction": {
        "from": "0x51908f598a5e0d8f1a3babfa6df76f9704dad072",
        "to": "0x05e73354cfdd6745c338b50bcfdfa3aa6fa03408",
        "gas": "0x12943",
        "value": "0x0",
        "input": "0x6276cbbe000000000000000000000000036cbd53842c5426634e7929541ec2318f3dcf7e00000000000000000000000068ebad847a016bb830b3607e0eeea516a09ea5e60000000000000000000000000000000000000000000000000000000000800000000000000000000000000000000000000000000000000000000000000000003c000000000000000000000000038f554a1b854f68b3bb46125ea1947ffbf9408000000000000000000000000000000000000f4240000000000000000000000000",
        "nonce": "0x171",
        "chainId": "0x14a34"
      },
      "additionalContracts": [],
      "isFixedGasLimit": false
    }
  ],
  "receipts": [
    {
      "status": "0x1",
      "cumulativeGasUsed": "0x17fd8",
      "logs": [
        {
          "address": "0x05e73354cfdd6745c338b50bcfdfa3aa6fa03408",
          "topics": [
            "0xdd466e674ea557f56295e2d0218a125ea4b4f0f6f3307b95f85e6110838d6438",
            "0x9c725b90d40af5c223a697bb4a489afe5ba1dd48ad0f95ee83344e3ea9505c26",
            "0x000000000000000000000000036cbd53842c5426634e7929541ec2318f3dcf7e",
            "0x00000000000000000000000068ebad847a016bb830b3607e0eeea516a09ea5e6"
          ],
          "data": "0x0000000000000000000000000000000000000000000000000000000000800000000000000000000000000000000000000000000000000000000000000000003c000000000000000000000000038f554a1b854f68b3bb46125ea1947ffbf9408000000000000000000000000000000000000f42400000000000000000000000000000000000000000000000000000000000000000000000000000000000043764",
          "blockHash": "0x0000000000000000000000000000000000000000000000000000000000000000",
          "blockNumber": "0x239acce",
          "blockTimestamp": "0x6986b87c",
          "transactionHash": "0xc454cc0605faf0177679c8fbd7ab452c9e8a56bc35a992ca770a789ad3261ef5",
          "transactionIndex": "0x1",
          "logIndex": "0x0",
          "removed": false
        }
      ],
      "logsBloom": "0x00000020000000000000000000000000800000000000000000000000000000000000000100000000000000000000000000000000000000000000000000000000000000000000000000000000000000000000000000000000000000000000000000000000000000000000000000010000000000000000000000000000000000000000000044000008000000002000000000000001000000000000000000200000000000000000000000000000000000000000000000000000100000000000000000000000001000000000000000000000000000000001000000000000000000000000000000000000000000000040000000000000000000000000000008000000",
      "type": "0x2",
      "transactionHash": "0xc454cc0605faf0177679c8fbd7ab452c9e8a56bc35a992ca770a789ad3261ef5",
      "transactionIndex": "0x1",
      "blockHash": "0x0000000000000000000000000000000000000000000000000000000000000000",
      "blockNumber": "0x239acce",
      "gasUsed": "0xcb42",
      "effectiveGasPrice": "0x124f80",
      "blobGasUsed": "0xad10",
      "from": "0x51908f598a5e0d8f1a3babfa6df76f9704dad072",
      "to": "0x05e73354cfdd6745c338b50bcfdfa3aa6fa03408",
      "contractAddress": null,
      "daFootprintGasScalar": "0x138",
      "l1BaseFeeScalar": "0x44d",
      "l1BlobBaseFee": "0x3b07789",
      "l1BlobBaseFeeScalar": "0xa118b",
      "l1Fee": "0x1f0618abb",
      "l1GasPrice": "0x3bd9dc83",
      "l1GasUsed": "0x8e4"
    }
  ],
  "libraries": [],
  "pending": [],
  "returns": {},
  "timestamp": 1770436730250,
  "chain": 84532,
  "commit": "cf686fc"
}