{
  "transactions": [
    {
      "hash": "0x443c60c0d9851a67245e851222fd96dc202c03a9c05eca6193ca8dbf73e58a07",
      "transactionType": "CALL",
      "contractName": null,
      "contractAddress": "0xf00ff91fdb4c8e7c3c352880a71b9fa7bf1bcb0b",
      "function": "setAuthorizedUpdater(address,bool)",
      "arguments": [
        "0x35025141D04CFB1c9b381B454f60e273A82e4e09",
        "true"
      ],
      "transaction": {
        "from": "0x8346288c03ab0f8de9916fb7a778d757dfb7832e",
        "to": "0xf00ff91fdb4c8e7c3c352880a71b9fa7bf1bcb0b",
        "gas": "0x104cc",
        "value": "0x0",
        "input": "0x99fc65d400000000000000000000000035025141d04cfb1c9b381b454f60e273a82e4e090000000000000000000000000000000000000000000000000000000000000001",
        "nonce": "0x1b",
        "chainId": "0x14a34"
      },
      "additionalContracts": [],
      "isFixedGasLimit": false
    }
  ],
  "receipts": [
    {
      "status": "0x1",
      "cumulativeGasUsed": "0x1abf17",
      "logs": [
        {
          "address": "0xf00ff91fdb4c8e7c3c352880a71b9fa7bf1bcb0b",
          "topics": [
            "0xa6d51c27fc61da8f21fd8542d69e95254d248038667cccea2a492d3ffb3283b9",
            "0x00000000000000000000000035025141d04cfb1c9b381b454f60e273a82e4e09"
          ],
          "data": "0x0000000000000000000000000000000000000000000000000000000000000001",
          "blockHash": "0x0000000000000000000000000000000000000000000000000000000000000000",
          "blockNumber": "0x23a5e8a",
          "blockTimestamp": "0x69881bf4",
          "transactionHash": "0x443c60c0d9851a67245e851222fd96dc202c03a9c05eca6193ca8dbf73e58a07",
          "transactionIndex": "0x8",
          "logIndex": "0x51",
          "removed": false
        }
      ],
      "logsBloom": "0x00000000000000000000000000000000000000000000000000000000000000000000000000000000000000000000000000000000000000000000000000000000000000000000000000000000000000000000000000100000000000000000000000000000000000000000000000000000000000000000000000000000000000000000000000000000000000000000000000000000000000000000000000000000000000000000000000000000000000000000000400000000000000000000000000000000000000000000000000000000000000000000000000004000000000000000000000000001000100050000000000000040000000000000000000002000",
      "type": "0x2",
      "transactionHash": "0x443c60c0d9851a67245e851222fd96dc202c03a9c05eca6193ca8dbf73e58a07",
      "transactionIndex": "0x8",
      "blockHash": "0x0000000000000000000000000000000000000000000000000000000000000000",
      "blockNumber": "0x23a5e8a",
      "gasUsed": "0xbcd0",
      "effectiveGasPrice": "0x124f80",
      "blobGasUsed": "0x79e0",
      "from": "0x8346288c03ab0f8de9916fb7a778d757dfb7832e",
      "to": "0xf00ff91fdb4c8e7c3c352880a71b9fa7bf1bcb0b",
      "contractAddress": null,
      "daFootprintGasScalar": "0x138",
      "l1BaseFeeScalar": "0x44d",
      "l1BlobBaseFee": "0x35c0a0f",
      "l1BlobBaseFeeScalar": "0xa118b",
      "l1Fee": "0x14eb1bde2",
      "l1GasPrice": "0x4027af4d",
      "l1GasUsed": "0x640"
    }
  ],
  "libraries": [],
  "pending": [],
  "returns": {},
  "timestamp": 1770527731293,
  "chain": 84532,
  "commit": "2e6b427"
}