{
  "transactions": [
    {
      "hash": "0x29ee38bdc278e378a6d7363afab5daf9ce19959bf95e9d2e583e0a40f41de5be",
      "transactionType": "CALL",
      "contractName": null,
      "contractAddress": "0xe03a1074c86cfedd5c142c4f04f1a1536e203543",
      "function": "initialize((address,address,uint24,int24,address),uint160)",
      "arguments": [
        "(0x1c7D4B196Cb0C7B01d743Fbc6116a902379C7238, 0x7BED4A835afd83BEf0F959780eDAE8Da4c22Bd11, 8388608, 60, 0x50Df7B29fAA6C61BeC5288BF763bA4196DbE0080)",
        "79228162514264337593543950336000000"
      ],
      "transaction": {
        "from": "0x51908f598a5e0d8f1a3babfa6df76f9704dad072",
        "to": "0xe03a1074c86cfedd5c142c4f04f1a1536e203543",
        "gas": "0x118ae",
        "value": "0x0",
        "input": "0x6276cbbe0000000000000000000000001c7d4b196cb0c7b01d743fbc6116a902379c72380000000000000000000000007bed4a835afd83bef0f959780edae8da4c22bd110000000000000000000000000000000000000000000000000000000000800000000000000000000000000000000000000000000000000000000000000000003c00000000000000000000000050df7b29faa6c61bec5288bf763ba4196dbe008000000000000000000000000000000000000f4240000000000000000000000000",
        "nonce": "0x361",
        "chainId": "0xaa36a7"
      },
      "additionalContracts": [],
      "isFixedGasLimit": false
    }
  ],
  "receipts": [
    {
      "status": "0x1",
      "cumulativeGasUsed": "0x631cd6",
      "logs": [
        {
          "address": "0xe03a1074c86cfedd5c142c4f04f1a1536e203543",
          "topics": [
            "0xdd466e674ea557f56295e2d0218a125ea4b4f0f6f3307b95f85e6110838d6438",
            "0x86809c5e48e6ae0650da53da398de7e7af09f7bdec35e50de88d895b3462f5b3",
            "0x0000000000000000000000001c7d4b196cb0c7b01d743fbc6116a902379c7238",
            "0x0000000000000000000000007bed4a835afd83bef0f959780edae8da4c22bd11"
          ],
          "data": "0x0000000000000000000000000000000000000000000000000000000000800000000000000000000000000000000000000000000000000000000000000000003c00000000000000000000000050df7b29faa6c61bec5288bf763ba4196dbe008000000000000000000000000000000000000f42400000000000000000000000000000000000000000000000000000000000000000000000000000000000043764",
          "blockHash": "0x8a9ae21da3efd1ae16ac02c31894f5aca021274202443324a87a7861a99c3575",
          "blockNumber": "0x9bc2fd",
          "blockTimestamp": "0x6986b890",
          "transactionHash": "0x29ee38bdc278e378a6d7363afab5daf9ce19959bf95e9d2e583e0a40f41de5be",
          "transactionIndex": "0x55",
          "logIndex": "0x90",
          "removed": false
        }
      ],
      "logsBloom": "0x02000000000000000000000000000000000000000000000000000000000000000000000000000000000000000000000000000100000004000000000000000000100000000000000000000000000000000000000000000000000000000000000000000000000000000000000000000000000000000000100000000000000000000000200000000008000000000000000000000001000000000000000000200000000000000000000000000000000000000000008000000000000000000000000000000000000000000000000200000000000000000000000000000000000000001104000000000000000000000000000000000000000000000080000000000000",
      "type": "0x2",
      "transactionHash": "0x29ee38bdc278e378a6d7363afab5daf9ce19959bf95e9d2e583e0a40f41de5be",
      "transactionIndex": "0x55",
      "blockHash": "0x8a9ae21da3efd1ae16ac02c31894f5aca021274202443324a87a7861a99c3575",
      "blockNumber": "0x9bc2fd",
      "gasUsed": "0xcb36",
      "effectiveGasPrice": "0x3fa3c305",
      "from": "0x51908f598a5e0d8f1a3babfa6df76f9704dad072",
      "to": "0xe03a1074c86cfedd5c142c4f04f1a1536e203543",
      "contractAddress": null
    }
  ],
  "libraries": [],
  "pending": [],
  "returns": {},
  "timestamp": 1770436753637,
  "chain": 11155111,
  "commit": "cf686fc"
}