{
  "transactions": [
    {
      "hash": "0x71d5c59be9667cc550749b03c0221e0c13efc66003c7b69b009fd9bbf4353df3",
      "transactionType": "CALL",
      "contractName": null,
      "contractAddress": "0xe03a1074c86cfedd5c142c4f04f1a1536e203543",
      "function": "initialize((address,address,uint24,int24,address),uint160)",
      "arguments": [
        "(0x1c7D4B196Cb0C7B01d743Fbc6116a902379C7238, 0x8845A9E68A7cac280a70aeE76d3b963FfF803aA9, 8388608, 60, 0x05889dC75f0A8B6AD9a8763a50429C8648354080)",
        "79228162514264337593543950336000000"
      ],
      "transaction": {
        "from": "0x8346288c03ab0f8de9916fb7a778d757dfb7832e",
        "to": "0xe03a1074c86cfedd5c142c4f04f1a1536e203543",
        "gas": "0x12943",
        "value": "0x0",
        "input": "0x6276cbbe0000000000000000000000001c7d4b196cb0c7b01d743fbc6116a902379c72380000000000000000000000008845a9e68a7cac280a70aee76d3b963fff803aa90000000000000000000000000000000000000000000000000000000000800000000000000000000000000000000000000000000000000000000000000000003c00000000000000000000000005889dc75f0a8b6ad9a8763a50429c864835408000000000000000000000000000000000000f4240000000000000000000000000",
        "nonce": "0x6",
        "chainId": "0xaa36a7"
      },
      "additionalContracts": [],
      "isFixedGasLimit": false
    }
  ],
  "receipts": [
    {
      "status": "0x1",
      "cumulativeGasUsed": "0xd0bf30",
      "logs": [
        {
          "address": "0xe03a1074c86cfedd5c142c4f04f1a1536e203543",
          "topics": [
            "0xdd466e674ea557f56295e2d0218a125ea4b4f0f6f3307b95f85e6110838d6438",
            "0xb60d8e3014fe49faa30593e8bf67cb0a7c587d1de95d8c7c1c985f219404000b",
            "0x0000000000000000000000001c7d4b196cb0c7b01d743fbc6116a902379c7238",
            "0x0000000000000000000000008845a9e68a7cac280a70aee76d3b963fff803aa9"
          ],
          "data": "0x0000000000000000000000000000000000000000000000000000000000800000000000000000000000000000000000000000000000000000000000000000003c00000000000000000000000005889dc75f0a8b6ad9a8763a50429c864835408000000000000000000000000000000000000f42400000000000000000000000000000000000000000000000000000000000000000000000000000000000043764",
          "blockHash": "0x437c550542b7f8e88180c13ce557b705dac7e7ed6dc2ea81f8a562045c5869ba",
          "blockNumber": "0x9bdf97",
          "blockTimestamp": "0x69881a18",
          "transactionHash": "0x71d5c59be9667cc550749b03c0221e0c13efc66003c7b69b009fd9bbf4353df3",
          "transactionIndex": "0x43",
          "logIndex": "0x86",
          "removed": false
        }
      ],
      "logsBloom": "0x00000000000000000000000002000000000000000000000000000000000000020000000000000000000000000000000000000100000004000000000000000000100000000000000000000000000000000000000000000000000000000000000000000000000000000000000000000000000000000000100000400000000000000000000000000008000000000000000000000001000000000000000000200000000000010000000000000000000000000000008000000000000000000000000000000000000000000000000000000000000000000000000000040000001000001000000000000000000000000000000000000000000000000000000000000000",
      "type": "0x2",
      "transactionHash": "0x71d5c59be9667cc550749b03c0221e0c13efc66003c7b69b009fd9bbf4353df3",
      "transactionIndex": "0x43",
      "blockHash": "0x437c550542b7f8e88180c13ce557b705dac7e7ed6dc2ea81f8a562045c5869ba",
      "blockNumber": "0x9bdf97",
      "gasUsed": "0xcb42",
      "effectiveGasPrice": "0x42322113",
      "from": "0x8346288c03ab0f8de9916fb7a778d757dfb7832e",
      "to": "0xe03a1074c86cfedd5c142c4f04f1a1536e203543",
      "contractAddress": null
    }
  ],
  "libraries": [],
  "pending": [],
  "returns": {},
  "timestamp": 1770527257721,
  "chain": 11155111,
  "commit": "2e6b427"
}