{
  "transactions": [
    {
      "hash": "0xe24714b2a2633502c0e33733d3e629140c1c02566e790c2e7cedc7931ebb1674",
      "transactionType": "CALL",
      "contractName": null,
      "contractAddress": "0x00b036b58a818b1bc34d502d3fe730db729e62ac",
      "function": "initialize((address,address,uint24,int24,address),uint160)",
      "arguments": [
        "(0x31d0220469e10c4E71834a79b1f276d740d3768F, 0x67ADc29278d87D87b212C59fDffd2749fe7418c4, 8388608, 60, 0x079eC9842F78E5431F11AdD4a53d442192978080)",
        "79228162514264337593543950336000000"
      ],
      "transaction": {
        "from": "0x51908f598a5e0d8f1a3babfa6df76f9704dad072",
        "to": "0x00b036b58a818b1bc34d502d3fe730db729e62ac",
        "gas": "0x12943",
        "value": "0x0",
        "input": "0x6276cbbe00000000000000000000000031d0220469e10c4e71834a79b1f276d740d3768f00000000000000000000000067adc29278d87d87b212c59fdffd2749fe7418c40000000000000000000000000000000000000000000000000000000000800000000000000000000000000000000000000000000000000000000000000000003c000000000000000000000000079ec9842f78e5431f11add4a53d44219297808000000000000000000000000000000000000f4240000000000000000000000000",
        "nonce": "0x7",
        "chainId": "0x515"
      },
      "additionalContracts": [],
      "isFixedGasLimit": false
    }
  ],
  "receipts": [
    {
      "status": "0x1",
      "cumulativeGasUsed": "0x3456a",
      "logs": [
        {
          "address": "0x00b036b58a818b1bc34d502d3fe730db729e62ac",
          "topics": [
            "0xdd466e674ea557f56295e2d0218a125ea4b4f0f6f3307b95f85e6110838d6438",
            "0x380b282aa0aee86e8a7ad653de14ff9eb087dcecde018f5d172ff192ed588082",
            "0x00000000000000000000000031d0220469e10c4e71834a79b1f276d740d3768f",
            "0x00000000000000000000000067adc29278d87d87b212c59fdffd2749fe7418c4"
          ],
          "data": "0x0000000000000000000000000000000000000000000000000000000000800000000000000000000000000000000000000000000000000000000000000000003c000000000000000000000000079ec9842f78e5431f11add4a53d44219297808000000000000000000000000000000000000f42400000000000000000000000000000000000000000000000000000000000000000000000000000000000043764",
          "blockHash": "0xcd09ed11ca6672549c6cef4383e55e6e56f90a3f3f6bd903c2cce53985f1ec4b",
          "blockNumber": "0x2990af7",
          "blockTimestamp": "0x6986b843",
          "transactionHash": "0xe24714b2a2633502c0e33733d3e629140c1c02566e790c2e7cedc7931ebb1674",
          "transactionIndex": "0x3",
          "logIndex": "0x1",
          "removed": false
        }
      ],
      "logsBloom": "0x0000000000000000000000000000000000000000000000000000000000000000000000000000018000000000000000000000000000000000000000000000000000000010000000000000000000000000000000000000000000000000000000000000000000000000000000000000000000000000000000000000000100000000000000000000000800000000000c000800000001000000000000000000200000000000000100000000000000000000000000000000000000000000000000000000000000000000008000000000000000000000000000000000000000000000000000000000001000000000000000000000000000000002000000000000000010",
      "type": "0x2",
      "transactionHash": "0xe24714b2a2633502c0e33733d3e629140c1c02566e790c2e7cedc7931ebb1674",
      "transactionIndex": "0x3",
      "blockHash": "0xcd09ed11ca6672549c6cef4383e55e6e56f90a3f3f6bd903c2cce53985f1ec4b",
      "blockNumber": "0x2990af7",
      "gasUsed": "0xcb42",
      "effectiveGasPrice": "0x7a121",
      "blobGasUsed": "0xd7a0",
      "from": "0x51908f598a5e0d8f1a3babfa6df76f9704dad072",
      "to": "0x00b036b58a818b1bc34d502d3fe730db729e62ac",
      "contractAddress": null,
      "daFootprintGasScalar": "0x190",
      "l1BaseFeeScalar": "0x7d0",
      "l1BlobBaseFee": "0x32a3a52",
      "l1BlobBaseFeeScalar": "0xdbba0",
      "l1Fee": "0x28a92b6cb",
      "l1GasPrice": "0x3950f186",
      "l1GasUsed": "0x8ae"
    }
  ],
  "libraries": [],
  "pending": [],
  "returns": {},
  "timestamp": 1770436675178,
  "chain": 1301,
  "commit": "cf686fc"
}