{
  "transactions": [
    {
      "hash": "0xd9f23df38d396f890111b8fba94c443b9d933bbc0e26b5ffece17e74b028eb2e",
      "transactionType": "CALL",
      "contractName": null,
      "contractAddress": "0x00b036b58a818b1bc34d502d3fe730db729e62ac",
      "function": "initialize((address,address,uint24,int24,address),uint160)",
      "arguments": [
        "(0x31d0220469e10c4E71834a79b1f276d740d3768F, 0x8845A9E68A7cac280a70aeE76d3b963FfF803aA9, 8388608, 60, 0x35E43234dB84b3a9B663fc052B4012825Bc00080)",
        "79228162514264337593543950336000000"
      ],
      "transaction": {
        "from": "0x8346288c03ab0f8de9916fb7a778d757dfb7832e",
        "to": "0x00b036b58a818b1bc34d502d3fe730db729e62ac",
        "gas": "0x118ae",
        "value": "0x0",
        "input": "0x6276cbbe00000000000000000000000031d0220469e10c4e71834a79b1f276d740d3768f0000000000000000000000008845a9e68a7cac280a70aee76d3b963fff803aa90000000000000000000000000000000000000000000000000000000000800000000000000000000000000000000000000000000000000000000000000000003c00000000000000000000000035e43234db84b3a9b663fc052b4012825bc0008000000000000000000000000000000000000f4240000000000000000000000000",
        "nonce": "0x6",
        "chainId": "0x515"
      },
      "additionalContracts": [],
      "isFixedGasLimit": false
    }
  ],
  "receipts": [
    {
      "status": "0x1",
      "cumulativeGasUsed": "0x3455e",
      "logs": [
        {
          "address": "0x00b036b58a818b1bc34d502d3fe730db729e62ac",
          "topics": [
            "0xdd466e674ea557f56295e2d0218a125ea4b4f0f6f3307b95f85e6110838d6438",
            "0xc4286263f5aab2e314f269691a15c454f3c8e1e6574f1966365e04fd202bb6d6",
            "0x00000000000000000000000031d0220469e10c4e71834a79b1f276d740d3768f",
            "0x0000000000000000000000008845a9e68a7cac280a70aee76d3b963fff803aa9"
          ],
          "data": "0x0000000000000000000000000000000000000000000000000000000000800000000000000000000000000000000000000000000000000000000000000000003c00000000000000000000000035e43234db84b3a9b663fc052b4012825bc0008000000000000000000000000000000000000f42400000000000000000000000000000000000000000000000000000000000000000000000000000000000043764",
          "blockHash": "0x76937c637c820ab5d045a2dc0a7a86c44d1e121701f40ec93bd128a41a591cb5",
          "blockNumber": "0x29a6ce8",
          "blockTimestamp": "0x69881a34",
          "transactionHash": "0xd9f23df38d396f890111b8fba94c443b9d933bbc0e26b5ffece17e74b028eb2e",
          "transactionIndex": "0x3",
          "logIndex": "0x1",
          "removed": false
        }
      ],
      "logsBloom": "0x00000000000000000000000000000000000000000000000000000000000000020000000000000080000000000000000000000000000000000000000000000000000000000000000000000000000000000000000000000000000000000000000000000000000000000000000000000000000000000000000000000000000000000000000000000008000000000008004000000001000000000000000000200000000000010000000000000000000000000010000000000000000000000000000000000000000000008000000000000000000000000000000000000000001000000000000000001000000000000000000000000000000002000000000000000012",
      "type": "0x2",
      "transactionHash": "0xd9f23df38d396f890111b8fba94c443b9d933bbc0e26b5ffece17e74b028eb2e",
      "transactionIndex": "0x3",
      "blockHash": "0x76937c637c820ab5d045a2dc0a7a86c44d1e121701f40ec93bd128a41a591cb5",
      "blockNumber": "0x29a6ce8",
      "gasUsed": "0xcb36",
      "effectiveGasPrice": "0x7a121",
      "blobGasUsed": "0xd7a0",
      "from": "0x8346288c03ab0f8de9916fb7a778d757dfb7832e",
      "to": "0x00b036b58a818b1bc34d502d3fe730db729e62ac",
      "contractAddress": null,
      "daFootprintGasScalar": "0x190",
      "l1BaseFeeScalar": "0x7d0",
      "l1BlobBaseFee": "0x3baf6fd",
      "l1BlobBaseFeeScalar": "0xdbba0",
      "l1Fee": "0x2ecdd07e3",
      "l1GasPrice": "0x408b0da6",
      "l1GasUsed": "0x8a1"
    }
  ],
  "libraries": [],
  "pending": [],
  "returns": {},
  "timestamp": 1770527285181,
  "chain": 1301,
  "commit": "2e6b427"
}