{
  "transactions": [
    {
      "hash": "0x8cfa94bc49ad263bcc612a3e92ce31e32b58d5abdc5cc413d85402e4f0a45771",
      "transactionType": "CALL",
      "contractName": null,
      "contractAddress": "0x8845a9e68a7cac280a70aee76d3b963fff803aa9",
      "function": "mint(uint256)",
      "arguments": [
        "1000000000000000000000"
      ],
      "transaction": {
        "from": "0x8346288c03ab0f8de9916fb7a778d757dfb7832e",
        "to": "0x8845a9e68a7cac280a70aee76d3b963fff803aa9",
        "gas": "0x120d4",
        "value": "0x0",
        "input": "0xa0712d6800000000000000000000000000000000000000000000003635c9adc5dea00000",
        "nonce": "0x7",
        "chainId": "0xaa36a7"
      },
      "additionalContracts": [],
      "isFixedGasLimit": false
    }
  ],
  "receipts": [
    {
      "status": "0x1",
      "cumulativeGasUsed": "0x392cdc0",
      "logs": [
        {
          "address": "0x8845a9e68a7cac280a70aee76d3b963fff803aa9",
          "topics": [
            "0xddf252ad1be2c89b69c2b068fc378daa952ba7f163c4a11628f55a4df523b3ef",
            "0x0000000000000000000000000000000000000000000000000000000000000000",
            "0x0000000000000000000000008346288c03ab0f8de9916fb7a778d757dfb7832e"
          ],
          "data": "0x00000000000000000000000000000000000000000000003635c9adc5dea00000",
          "blockHash": "0xbb15a6ab13df2f7eb1931a8e58255ad91ab7d65023838d1028e9e7e8ef739d1f",
          "blockNumber": "0x9bdfab",
          "blockTimestamp": "0x69881b08",
          "transactionHash": "0x8cfa94bc49ad263bcc612a3e92ce31e32b58d5abdc5cc413d85402e4f0a45771",
          "transactionIndex": "0x5f",
          "logIndex": "0x8a",
          "removed": false
        }
      ],
      "logsBloom": "0x00800008000000000000000000000000000000000000000000000000000000000000000000000000000000000000008000000000000000000000000000000000000000000000000000000008000000000000000000000000000000000000000000000000020000000000000000000900000000040000000000000010000000000000000000000000000000000000000000000000000000000000000000000000000000000000000000000000000004000000000000000000000000000000000000000002000000000000000000000000000000000000000000000000000020000000000000000000000000000000000000000000000000000000000000000000",
      "type": "0x2",
      "transactionHash": "0x8cfa94bc49ad263bcc612a3e92ce31e32b58d5abdc5cc413d85402e4f0a45771",
      "transactionIndex": "0x5f",
      "blockHash": "0xbb15a6ab13df2f7eb1931a8e58255ad91ab7d65023838d1028e9e7e8ef739d1f",
      "blockNumber": "0x9bdfab",
      "gasUsed": "0xd11c",
      "effectiveGasPrice": "0x3826e252",
      "from": "0x8346288c03ab0f8de9916fb7a778d757dfb7832e",
      "to": "0x8845a9e68a7cac280a70aee76d3b963fff803aa9",
      "contractAddress": null
    }
  ],
  "libraries": [],
  "pending": [],
  "returns": {},
  "timestamp": 1770527497491,
  "chain": 11155111,
  "commit": "2e6b427"
}