{
  "transactions": [
    {
      "hash": "0x22d0f483b5ccbb6e02136f38bc2b8c6b9cb11e6dd1e1edff912aa44a7d44348f",
      "transactionType": "CALL",
      "contractName": null,
      "contractAddress": "0x8845a9e68a7cac280a70aee76d3b963fff803aa9",
      "function": "mint(uint256)",
      "arguments": [
        "1000000000000000000000"
      ],
      "transaction": {
        "from": "0x8346288c03ab0f8de9916fb7a778d757dfb7832e",
        "to": "0x8845a9e68a7cac280a70aee76d3b963fff803aa9",
        "gas": "0x17d17",
        "value": "0x0",
        "input": "0xa0712d6800000000000000000000000000000000000000000000003635c9adc5dea00000",
        "nonce": "0x4",
        "chainId": "0xaa36a7"
      },
      "additionalContracts": [],
      "isFixedGasLimit": false
    },
    {
      "hash": "0x55574705a1b0b0584af3c8a6c5f111caabf505fbd0676340992013965ad59cfd",
      "transactionType": "CALL",
      "contractName": null,
      "contractAddress": "0x8845a9e68a7cac280a70aee76d3b963fff803aa9",
      "function": "transfer(address,uint256)",
      "arguments": [
        "0x51908F598A5e0d8F1A3bAbFa6DF76F9704daD072",
        "1000000000000000000000"
      ],
      "transaction": {
        "from": "0x8346288c03ab0f8de9916fb7a778d757dfb7832e",
        "to": "0x8845a9e68a7cac280a70aee76d3b963fff803aa9",
        "gas": "0xff97",
        "value": "0x0",
        "input": "0xa9059cbb00000000000000000000000051908f598a5e0d8f1a3babfa6df76f9704dad07200000000000000000000000000000000000000000000003635c9adc5dea00000",
        "nonce": "0x5",
        "chainId": "0xaa36a7"
      },
      "additionalContracts": [],
      "isFixedGasLimit": false
    }
  ],
  "receipts": [
    {
      "status": "0x1",
      "cumulativeGasUsed": "0xb28a84",
      "logs": [
        {
          "address": "0x8845a9e68a7cac280a70aee76d3b963fff803aa9",
          "topics": [
            "0xddf252ad1be2c89b69c2b068fc378daa952ba7f163c4a11628f55a4df523b3ef",
            "0x0000000000000000000000000000000000000000000000000000000000000000",
            "0x0000000000000000000000008346288c03ab0f8de9916fb7a778d757dfb7832e"
          ],
          "data": "0x00000000000000000000000000000000000000000000003635c9adc5dea00000",
          "blockHash": "0x8c6ce6d54c42f31a44016da9d61ed43ebea3efcafa839172f5f3dc9ee2d60d44",
          "blockNumber": "0x9bdf92",
          "blockTimestamp": "0x698819dc",
          "transactionHash": "0x22d0f483b5ccbb6e02136f38bc2b8c6b9cb11e6dd1e1edff912aa44a7d44348f",
          "transactionIndex": "0x4e",
          "logIndex": "0x8f",
          "removed": false
        }
      ],
      "logsBloom": "0x00800008000000000000000000000000000000000000000000000000000000000000000000000000000000000000008000000000000000000000000000000000000000000000000000000008000000000000000000000000000000000000000000000000020000000000000000000900000000040000000000000010000000000000000000000000000000000000000000000000000000000000000000000000000000000000000000000000000004000000000000000000000000000000000000000002000000000000000000000000000000000000000000000000000020000000000000000000000000000000000000000000000000000000000000000000",
      "type": "0x2",
      "transactionHash": "0x22d0f483b5ccbb6e02136f38bc2b8c6b9cb11e6dd1e1edff912aa44a7d44348f",
      "transactionIndex": "0x4e",
      "blockHash": "0x8c6ce6d54c42f31a44016da9d61ed43ebea3efcafa839172f5f3dc9ee2d60d44",
      "blockNumber": "0x9bdf92",
      "gasUsed": "0x113e8",
      "effectiveGasPrice": "0x4021a80f",
      "from": "0x8346288c03ab0f8de9916fb7a778d757dfb7832e",
      "to": "0x8845a9e68a7cac280a70aee76d3b963fff803aa9",
      "contractAddress": null
    },
    {
      "status": "0x1",
      "cumulativeGasUsed": "0x667598",
      "logs": [
        {
          "address": "0x8845a9e68a7cac280a70aee76d3b963fff803aa9",
          "topics": [
            "0xddf252ad1be2c89b69c2b068fc378daa952ba7f163c4a11628f55a4df523b3ef",
            "0x0000000000000000000000008346288c03ab0f8de9916fb7a778d757dfb7832e",
            "0x00000000000000000000000051908f598a5e0d8f1a3babfa6df76f9704dad072"
          ],
          "data": "0x00000000000000000000000000000000000000000000003635c9adc5dea00000",
          "blockHash": "0xf7e62a81ad35c64acc34292a5f5666e83882ea45f2f9675ea69df0405d888800",
          "blockNumber": "0x9bdf93",
          "blockTimestamp": "0x698819e8",
          "transactionHash": "0x55574705a1b0b0584af3c8a6c5f111caabf505fbd0676340992013965ad59cfd",
          "transactionIndex": "0x30",
          "logIndex": "0x6c",
          "removed": false
        }
      ],
      "logsBloom": "0x00800008000000000000000000000000000000000000000000000000100000000000000000000200000000000000008000000000000000000000000000000000000000000000000040000008000000000000000000000000000000000000000000000000000000000000000000000100000000040000000000000010000000000000000000000000000000000000000000000000000000000000000000000000000000000000000000000000000004000000000000000000000000000000000000000002000000000000000000000000000000000000000000000000000000000000000000000000000000000000000000000000000000000000000000000000",
      "type": "0x2",
      "transactionHash": "0x55574705a1b0b0584af3c8a6c5f111caabf505fbd0676340992013965ad59cfd",
      "transactionIndex": "0x30",
      "blockHash": "0xf7e62a81ad35c64acc34292a5f5666e83882ea45f2f9675ea69df0405d888800",
      "blockNumber": "0x9bdf93",
      "gasUsed": "0xb90c",
      "effectiveGasPrice": "0x3c48402d",
      "from": "0x8346288c03ab0f8de9916fb7a778d757dfb7832e",
      "to": "0x8845a9e68a7cac280a70aee76d3b963fff803aa9",
      "contractAddress": null
    }
  ],
  "libraries": [],
  "pending": [],
  "returns": {},
  "timestamp": 1770527208452,
  "chain": 11155111,
  "commit": "2e6b427"
}