{
  "transactions": [
    {
      "hash": "0xb2d4eaeb9e743c8125beb6c943bf2b0046415c92e9dd88854b7a7e0d6a670007",
      "transactionType": "CALL",
      "contractName": null,
      "contractAddress": "0x8845a9e68a7cac280a70aee76d3b963fff803aa9",
      "function": "mint(uint256)",
      "arguments": [
        "1000000000000000000000"
      ],
      "transaction": {
        "from": "0x8346288c03ab0f8de9916fb7a778d757dfb7832e",
        "to": "0x8845a9e68a7cac280a70aee76d3b963fff803aa9",
        "gas": "0x17d17",
        "value": "0x0",
        "input": "0xa0712d6800000000000000000000000000000000000000000000003635c9adc5dea00000",
        "nonce": "0x4",
        "chainId": "0x515"
      },
      "additionalContracts": [],
      "isFixedGasLimit": false
    },
    {
      "hash": "0xa71c552cdb49fd007c65e4e463e721a32037f3f7de043670f4726021b67bd1b8",
      "transactionType": "CALL",
      "contractName": null,
      "contractAddress": "0x8845a9e68a7cac280a70aee76d3b963fff803aa9",
      "function": "transfer(address,uint256)",
      "arguments": [
        "0x51908F598A5e0d8F1A3bAbFa6DF76F9704daD072",
        "1000000000000000000000"
      ],
      "transaction": {
        "from": "0x8346288c03ab0f8de9916fb7a778d757dfb7832e",
        "to": "0x8845a9e68a7cac280a70aee76d3b963fff803aa9",
        "gas": "0xff97",
        "value": "0x0",
        "input": "0xa9059cbb00000000000000000000000051908f598a5e0d8f1a3babfa6df76f9704dad07200000000000000000000000000000000000000000000003635c9adc5dea00000",
        "nonce": "0x5",
        "chainId": "0x515"
      },
      "additionalContracts": [],
      "isFixedGasLimit": false
    }
  ],
  "receipts": [
    {
      "status": "0x1",
      "cumulativeGasUsed": "0x94ea8",
      "logs": [
        {
          "address": "0x8845a9e68a7cac280a70aee76d3b963fff803aa9",
          "topics": [
            "0xddf252ad1be2c89b69c2b068fc378daa952ba7f163c4a11628f55a4df523b3ef",
            "0x0000000000000000000000000000000000000000000000000000000000000000",
            "0x0000000000000000000000008346288c03ab0f8de9916fb7a778d757dfb7832e"
          ],
          "data": "0x00000000000000000000000000000000000000000000003635c9adc5dea00000",
          "blockHash": "0x4968c4aa05a41da20ddff07f61b2c050f7eec5ba708eb286ddd0c6cc8c0216f3",
          "blockNumber": "0x29a6cbd",
          "blockTimestamp": "0x69881a09",
          "transactionHash": "0xb2d4eaeb9e743c8125beb6c943bf2b0046415c92e9dd88854b7a7e0d6a670007",
          "transactionIndex": "0x7",
          "logIndex": "0x5",
          "removed": false
        }
      ],
      "logsBloom": "0x00800008000000000000000000000000000000000000000000000000000000000000000000000000000000000000008000000000000000000000000000000000000000000000000000000008000000000000000000000000000000000000000000000000020000000000000000000900000000040000000000000010000000000000000000000000000000000000000000000000000000000000000000000000000000000000000000000000000004000000000000000000000000000000000000000002000000000000000000000000000000000000000000000000000020000000000000000000000000000000000000000000000000000000000000000000",
      "type": "0x2",
      "transactionHash": "0xb2d4eaeb9e743c8125beb6c943bf2b0046415c92e9dd88854b7a7e0d6a670007",
      "transactionIndex": "0x7",
      "blockHash": "0x4968c4aa05a41da20ddff07f61b2c050f7eec5ba708eb286ddd0c6cc8c0216f3",
      "blockNumber": "0x29a6cbd",
      "gasUsed": "0x113e8",
      "effectiveGasPrice": "0x7a121",
      "blobGasUsed": "0x9c40",
      "from": "0x8346288c03ab0f8de9916fb7a778d757dfb7832e",
      "to": "0x8845a9e68a7cac280a70aee76d3b963fff803aa9",
      "contractAddress": null,
      "daFootprintGasScalar": "0x190",
      "l1BaseFeeScalar": "0x7d0",
      "l1BlobBaseFee": "0x3a5c761",
      "l1BlobBaseFeeScalar": "0xdbba0",
      "l1Fee": "0x2163df170",
      "l1GasPrice": "0x405cd3eb",
      "l1GasUsed": "0x640"
    },
    {
      "status": "0x1",
      "cumulativeGasUsed": "0xa07b4",
      "logs": [
        {
          "address": "0x8845a9e68a7cac280a70aee76d3b963fff803aa9",
          "topics": [
            "0xddf252ad1be2c89b69c2b068fc378daa952ba7f163c4a11628f55a4df523b3ef",
            "0x0000000000000000000000008346288c03ab0f8de9916fb7a778d757dfb7832e",
            "0x00000000000000000000000051908f598a5e0d8f1a3babfa6df76f9704dad072"
          ],
          "data": "0x00000000000000000000000000000000000000000000003635c9adc5dea00000",
          "blockHash": "0x4968c4aa05a41da20ddff07f61b2c050f7eec5ba708eb286ddd0c6cc8c0216f3",
          "blockNumber": "0x29a6cbd",
          "blockTimestamp": "0x69881a09",
          "transactionHash": "0xa71c552cdb49fd007c65e4e463e721a32037f3f7de043670f4726021b67bd1b8",
          "transactionIndex": "0x8",
          "logIndex": "0x6",
          "removed": false
        }
      ],
      "logsBloom": "0x00800008000000000000000000000000000000000000000000000000100000000000000000000200000000000000008000000000000000000000000000000000000000000000000040000008000000000000000000000000000000000000000000000000000000000000000000000100000000040000000000000010000000000000000000000000000000000000000000000000000000000000000000000000000000000000000000000000000004000000000000000000000000000000000000000002000000000000000000000000000000000000000000000000000000000000000000000000000000000000000000000000000000000000000000000000",
      "type": "0x2",
      "transactionHash": "0xa71c552cdb49fd007c65e4e463e721a32037f3f7de043670f4726021b67bd1b8",
      "transactionIndex": "0x8",
      "blockHash": "0x4968c4aa05a41da20ddff07f61b2c050f7eec5ba708eb286ddd0c6cc8c0216f3",
      "blockNumber": "0x29a6cbd",
      "gasUsed": "0xb90c",
      "effectiveGasPrice": "0x7a121",
      "blobGasUsed": "0x9c40",
      "from": "0x8346288c03ab0f8de9916fb7a778d757dfb7832e",
      "to": "0x8845a9e68a7cac280a70aee76d3b963fff803aa9",
      "contractAddress": null,
      "daFootprintGasScalar": "0x190",
      "l1BaseFeeScalar": "0x7d0",
      "l1BlobBaseFee": "0x3a5c761",
      "l1BlobBaseFeeScalar": "0xdbba0",
      "l1Fee": "0x2163df170",
      "l1GasPrice": "0x405cd3eb",
      "l1GasUsed": "0x640"
    }
  ],
  "libraries": [],
  "pending": [],
  "returns": {},
  "timestamp": 1770527241275,
  "chain": 1301,
  "commit": "2e6b427"
}