{
  "transactions": [
    {
      "hash": "0xe10c67f95413647361e142fa225238eb712bc7f57e35c75e154d218ea6c375d6",
      "transactionType": "CALL",
      "contractName": null,
      "contractAddress": "0x8845a9e68a7cac280a70aee76d3b963fff803aa9",
      "function": "mint(uint256)",
      "arguments": [
        "1000000000000000000000"
      ],
      "transaction": {
        "from": "0x8346288c03ab0f8de9916fb7a778d757dfb7832e",
        "to": "0x8845a9e68a7cac280a70aee76d3b963fff803aa9",
        "gas": "0x120d4",
        "value": "0x0",
        "input": "0xa0712d6800000000000000000000000000000000000000000000003635c9adc5dea00000",
        "nonce": "0x7",
        "chainId": "0x515"
      },
      "additionalContracts": [],
      "isFixedGasLimit": false
    }
  ],
  "receipts": [
    {
      "status": "0x1",
      "cumulativeGasUsed": "0x34b50",
      "logs": [
        {
          "address": "0x8845a9e68a7cac280a70aee76d3b963fff803aa9",
          "topics": [
            "0xddf252ad1be2c89b69c2b068fc378daa952ba7f163c4a11628f55a4df523b3ef",
            "0x0000000000000000000000000000000000000000000000000000000000000000",
            "0x0000000000000000000000008346288c03ab0f8de9916fb7a778d757dfb7832e"
          ],
          "data": "0x00000000000000000000000000000000000000000000003635c9adc5dea00000",
          "blockHash": "0x0000000000000000000000000000000000000000000000000000000000000000",
          "blockNumber": "0x29a6dd4",
          "blockTimestamp": "0x69881b20",
          "transactionHash": "0xe10c67f95413647361e142fa225238eb712bc7f57e35c75e154d218ea6c375d6",
          "transactionIndex": "0x3",
          "logIndex": "0x1",
          "removed": false
        }
      ],
      "logsBloom": "0x00800008000000000000000000000000000000000000000000000000000000000000000000000000000000000000008000000000000000000000000000000000000000000000000000000008000000000000000000000000000000000000000000000000020000000000000000000900000000040000000000000010000000000000000000000000000000000000000000000000000000000000000000000000000000000000000000000000000004000000000000000000000000000000000000000002000000000000000000000000000000000000000000000000000020000000000000000000000000000000000000000000000000000000000000000000",
      "type": "0x2",
      "transactionHash": "0xe10c67f95413647361e142fa225238eb712bc7f57e35c75e154d218ea6c375d6",
      "transactionIndex": "0x3",
      "blockHash": "0x0000000000000000000000000000000000000000000000000000000000000000",
      "blockNumber": "0x29a6dd4",
      "gasUsed": "0xd11c",
      "effectiveGasPrice": "0x7a121",
      "blobGasUsed": "0x9c40",
      "from": "0x8346288c03ab0f8de9916fb7a778d757dfb7832e",
      "to": "0x8845a9e68a7cac280a70aee76d3b963fff803aa9",
      "contractAddress": null,
      "daFootprintGasScalar": "0x190",
      "l1BaseFeeScalar": "0x7d0",
      "l1BlobBaseFee": "0x3b3d977",
      "l1BlobBaseFeeScalar": "0xdbba0",
      "l1Fee": "0x2c92cf8dc",
      "l1GasPrice": "0x393fcac8",
      "l1GasUsed": "0x640"
    }
  ],
  "libraries": [],
  "pending": [],
  "returns": {},
  "timestamp": 1770527519449,
  "chain": 1301,
  "commit": "2e6b427"
}